{
  "contractName": "MultiSigWallet",
  "abi": [
    {
      "inputs": [
        {
          "internalType": "address[]",
          "name": "_approvers",
          "type": "address[]"
        },
        {
          "internalType": "uint256",
          "name": "_quorum",
          "type": "uint256"
        }
      ],
      "stateMutability": "nonpayable",
      "type": "constructor"
    },
    {
      "inputs": [
        {
          "internalType": "address",
          "name": "",
          "type": "address"
        },
        {
          "internalType": "uint256",
          "name": "",
          "type": "uint256"
        }
      ],
      "name": "approvals",
      "outputs": [
        {
          "internalType": "bool",
          "name": "",
          "type": "bool"
        }
      ],
      "stateMutability": "view",
      "type": "function"
    },
    {
      "inputs": [
        {
          "internalType": "uint256",
          "name": "",
          "type": "uint256"
        }
      ],
      "name": "approvers",
      "outputs": [
        {
          "internalType": "address",
          "name": "",
          "type": "address"
        }
      ],
      "stateMutability": "view",
      "type": "function"
    },
    {
      "inputs": [],
      "name": "nextId",
      "outputs": [
        {
          "internalType": "uint256",
          "name": "",
          "type": "uint256"
        }
      ],
      "stateMutability": "view",
      "type": "function"
    },
    {
      "inputs": [],
      "name": "quorum",
      "outputs": [
        {
          "internalType": "uint256",
          "name": "",
          "type": "uint256"
        }
      ],
      "stateMutability": "view",
      "type": "function"
    },
    {
      "inputs": [
        {
          "internalType": "uint256",
          "name": "",
          "type": "uint256"
        }
      ],
      "name": "transfers",
      "outputs": [
        {
          "internalType": "uint256",
          "name": "id",
          "type": "uint256"
        },
        {
          "internalType": "uint256",
          "name": "amount",
          "type": "uint256"
        },
        {
          "internalType": "address payable",
          "name": "to",
          "type": "address"
        },
        {
          "internalType": "uint256",
          "name": "approvals",
          "type": "uint256"
        },
        {
          "internalType": "bool",
          "name": "sent",
          "type": "bool"
        }
      ],
      "stateMutability": "view",
      "type": "function"
    },
    {
      "stateMutability": "payable",
      "type": "receive"
    },
    {
      "inputs": [],
      "name": "getApprovers",
      "outputs": [
        {
          "internalType": "address[]",
          "name": "",
          "type": "address[]"
        }
      ],
      "stateMutability": "view",
      "type": "function"
    },
    {
      "inputs": [],
      "name": "getTransfers",
      "outputs": [
        {
          "components": [
            {
              "internalType": "uint256",
              "name": "id",
              "type": "uint256"
            },
            {
              "internalType": "uint256",
              "name": "amount",
              "type": "uint256"
            },
            {
              "internalType": "address payable",
              "name": "to",
              "type": "address"
            },
            {
              "internalType": "uint256",
              "name": "approvals",
              "type": "uint256"
            },
            {
              "internalType": "bool",
              "name": "sent",
              "type": "bool"
            }
          ],
          "internalType": "struct MultiSigWallet.Transfer[]",
          "name": "",
          "type": "tuple[]"
        }
      ],
      "stateMutability": "view",
      "type": "function"
    },
    {
      "inputs": [
        {
          "internalType": "uint256",
          "name": "amount",
          "type": "uint256"
        },
        {
          "internalType": "address payable",
          "name": "to",
          "type": "address"
        }
      ],
      "name": "createTransfer",
      "outputs": [],
      "stateMutability": "nonpayable",
      "type": "function"
    },
    {
      "inputs": [
        {
          "internalType": "uint256",
          "name": "id",
          "type": "uint256"
        }
      ],
      "name": "approveTransfer",
      "outputs": [],
      "stateMutability": "nonpayable",
      "type": "function"
    },
    {
      "inputs": [],
      "name": "balance",
      "outputs": [
        {
          "internalType": "uint256",
          "name": "",
          "type": "uint256"
        }
      ],
      "stateMutability": "view",
      "type": "function"
    }
  ],
  "bytecode": "0x60806040523480156200001157600080fd5b50604051620015d4380380620015d4833981810160405281019062000037919062000336565b81600090805190602001906200004f9291906200005f565b508060018190555050506200039c565b828054828255906000526020600020908101928215620000db579160200282015b82811115620000da5782518260006101000a81548173ffffffffffffffffffffffffffffffffffffffff021916908373ffffffffffffffffffffffffffffffffffffffff1602179055509160200191906001019062000080565b5b509050620000ea9190620000ee565b5090565b5b8082111562000109576000816000905550600101620000ef565b5090565b6000604051905090565b600080fd5b600080fd5b600080fd5b6000601f19601f8301169050919050565b7f4e487b7100000000000000000000000000000000000000000000000000000000600052604160045260246000fd5b620001718262000126565b810181811067ffffffffffffffff8211171562000193576200019262000137565b5b80604052505050565b6000620001a86200010d565b9050620001b6828262000166565b919050565b600067ffffffffffffffff821115620001d957620001d862000137565b5b602082029050602081019050919050565b600080fd5b600073ffffffffffffffffffffffffffffffffffffffff82169050919050565b60006200021c82620001ef565b9050919050565b6200022e816200020f565b81146200023a57600080fd5b50565b6000815190506200024e8162000223565b92915050565b60006200026b6200026584620001bb565b6200019c565b90508083825260208201905060208402830185811115620002915762000290620001ea565b5b835b81811015620002be5780620002a988826200023d565b84526020840193505060208101905062000293565b5050509392505050565b600082601f830112620002e057620002df62000121565b5b8151620002f284826020860162000254565b91505092915050565b6000819050919050565b6200031081620002fb565b81146200031c57600080fd5b50565b600081519050620003308162000305565b92915050565b6000806040838503121562000350576200034f62000117565b5b600083015167ffffffffffffffff8111156200037157620003706200011c565b5b6200037f85828601620002c8565b925050602062000392858286016200031f565b9150509250929050565b61122880620003ac6000396000f3fe6080604052600436106100955760003560e01c80639377d711116100595780639377d71114610176578063b69ef8a8146101b7578063cacca4a0146101e2578063d3650fb81461020b578063ffabc673146102485761009c565b80631703a018146100a15780632f65142c146100cc5780634c12fa47146100f757806361b8ce8c146101205780636cb3e8ef1461014b5761009c565b3661009c57005b600080fd5b3480156100ad57600080fd5b506100b6610285565b6040516100c39190610b05565b60405180910390f35b3480156100d857600080fd5b506100e161028b565b6040516100ee9190610ca2565b60405180910390f35b34801561010357600080fd5b5061011e60048036038101906101199190610d21565b6103e0565b005b34801561012c57600080fd5b506101356105c3565b6040516101429190610b05565b60405180910390f35b34801561015757600080fd5b506101606105c9565b60405161016d9190610e31565b60405180910390f35b34801561018257600080fd5b5061019d60048036038101906101989190610e53565b610657565b6040516101ae959493929190610e9e565b60405180910390f35b3480156101c357600080fd5b506101cc6106ba565b6040516101d99190610b05565b60405180910390f35b3480156101ee57600080fd5b5061020960048036038101906102049190610e53565b6106c2565b005b34801561021757600080fd5b50610232600480360381019061022d9190610e53565b610a37565b60405161023f9190610f00565b60405180910390f35b34801561025457600080fd5b5061026f600480360381019061026a9190610f47565b610a76565b60405161027c9190610f87565b60405180910390f35b60015481565b6060600060035467ffffffffffffffff8111156102ab576102aa610fa2565b5b6040519080825280602002602001820160405280156102e457816020015b6102d1610aa5565b8152602001906001900390816102c95790505b50905060005b6003548110156103d8576000600260008381526020019081526020016000209050806040518060a001604052908160008201548152602001600182015481526020016002820160009054906101000a900473ffffffffffffffffffffffffffffffffffffffff1673ffffffffffffffffffffffffffffffffffffffff1673ffffffffffffffffffffffffffffffffffffffff168152602001600382015481526020016004820160009054906101000a900460ff1615151515815250508383815181106103b9576103b8610fd1565b5b60200260200101819052505080806103d09061102f565b9150506102ea565b508091505090565b6000805b60008054905081101561047e573373ffffffffffffffffffffffffffffffffffffffff166000828154811061041c5761041b610fd1565b5b9060005260206000200160009054906101000a900473ffffffffffffffffffffffffffffffffffffffff1673ffffffffffffffffffffffffffffffffffffffff160361046b576001915061047e565b80806104769061102f565b9150506103e4565b5060011515811515146104c6576040517f08c379a00000000000000000000000000000000000000000000000000000000081526004016104bd906110d4565b60405180910390fd5b6040518060a0016040528060035481526020018481526020018373ffffffffffffffffffffffffffffffffffffffff1681526020016000815260200160001515815250600260006003548152602001908152602001600020600082015181600001556020820151816001015560408201518160020160006101000a81548173ffffffffffffffffffffffffffffffffffffffff021916908373ffffffffffffffffffffffffffffffffffffffff1602179055506060820151816003015560808201518160040160006101000a81548160ff021916908315150217905550905050600360008154809291906105b99061102f565b9190505550505050565b60035481565b6060600080548060200260200160405190810160405280929190818152602001828054801561064d57602002820191906000526020600020905b8160009054906101000a900473ffffffffffffffffffffffffffffffffffffffff1673ffffffffffffffffffffffffffffffffffffffff1681526020019060010190808311610603575b5050505050905090565b60026020528060005260406000206000915090508060000154908060010154908060020160009054906101000a900473ffffffffffffffffffffffffffffffffffffffff16908060030154908060040160009054906101000a900460ff16905085565b600047905090565b6000805b600080549050811015610760573373ffffffffffffffffffffffffffffffffffffffff16600082815481106106fe576106fd610fd1565b5b9060005260206000200160009054906101000a900473ffffffffffffffffffffffffffffffffffffffff1673ffffffffffffffffffffffffffffffffffffffff160361074d5760019150610760565b80806107589061102f565b9150506106c6565b5060011515811515146107a8576040517f08c379a000000000000000000000000000000000000000000000000000000000815260040161079f906110d4565b60405180910390fd5b600015156002600084815260200190815260200160002060040160009054906101000a900460ff16151514610812576040517f08c379a000000000000000000000000000000000000000000000000000000000815260040161080990611140565b60405180910390fd5b60001515600460003373ffffffffffffffffffffffffffffffffffffffff1673ffffffffffffffffffffffffffffffffffffffff168152602001908152602001600020600084815260200190815260200160002060009054906101000a900460ff161515146108b6576040517f08c379a00000000000000000000000000000000000000000000000000000000081526004016108ad906111d2565b60405180910390fd5b6001600460003373ffffffffffffffffffffffffffffffffffffffff1673ffffffffffffffffffffffffffffffffffffffff168152602001908152602001600020600084815260200190815260200160002060006101000a81548160ff0219169083151502179055506002600083815260200190815260200160002060030160008154809291906109469061102f565b9190505550600154600260008481526020019081526020016000206003015410610a335760016002600084815260200190815260200160002060040160006101000a81548160ff02191690831515021790555060006002600084815260200190815260200160002060020160009054906101000a900473ffffffffffffffffffffffffffffffffffffffff1690508073ffffffffffffffffffffffffffffffffffffffff166108fc60026000868152602001908152602001600020600101549081150290604051600060405180830381858888f19350505050158015610a30573d6000803e3d6000fd5b50505b5050565b60008181548110610a4757600080fd5b906000526020600020016000915054906101000a900473ffffffffffffffffffffffffffffffffffffffff1681565b60046020528160005260406000206020528060005260406000206000915091509054906101000a900460ff1681565b6040518060a001604052806000815260200160008152602001600073ffffffffffffffffffffffffffffffffffffffff168152602001600081526020016000151581525090565b6000819050919050565b610aff81610aec565b82525050565b6000602082019050610b1a6000830184610af6565b92915050565b600081519050919050565b600082825260208201905092915050565b6000819050602082019050919050565b610b5581610aec565b82525050565b600073ffffffffffffffffffffffffffffffffffffffff82169050919050565b6000610b8682610b5b565b9050919050565b610b9681610b7b565b82525050565b60008115159050919050565b610bb181610b9c565b82525050565b60a082016000820151610bcd6000850182610b4c565b506020820151610be06020850182610b4c565b506040820151610bf36040850182610b8d565b506060820151610c066060850182610b4c565b506080820151610c196080850182610ba8565b50505050565b6000610c2b8383610bb7565b60a08301905092915050565b6000602082019050919050565b6000610c4f82610b20565b610c598185610b2b565b9350610c6483610b3c565b8060005b83811015610c95578151610c7c8882610c1f565b9750610c8783610c37565b925050600181019050610c68565b5085935050505092915050565b60006020820190508181036000830152610cbc8184610c44565b905092915050565b600080fd5b610cd281610aec565b8114610cdd57600080fd5b50565b600081359050610cef81610cc9565b92915050565b610cfe81610b7b565b8114610d0957600080fd5b50565b600081359050610d1b81610cf5565b92915050565b60008060408385031215610d3857610d37610cc4565b5b6000610d4685828601610ce0565b9250506020610d5785828601610d0c565b9150509250929050565b600081519050919050565b600082825260208201905092915050565b6000819050602082019050919050565b6000610d9882610b5b565b9050919050565b610da881610d8d565b82525050565b6000610dba8383610d9f565b60208301905092915050565b6000602082019050919050565b6000610dde82610d61565b610de88185610d6c565b9350610df383610d7d565b8060005b83811015610e24578151610e0b8882610dae565b9750610e1683610dc6565b925050600181019050610df7565b5085935050505092915050565b60006020820190508181036000830152610e4b8184610dd3565b905092915050565b600060208284031215610e6957610e68610cc4565b5b6000610e7784828501610ce0565b91505092915050565b610e8981610b7b565b82525050565b610e9881610b9c565b82525050565b600060a082019050610eb36000830188610af6565b610ec06020830187610af6565b610ecd6040830186610e80565b610eda6060830185610af6565b610ee76080830184610e8f565b9695505050505050565b610efa81610d8d565b82525050565b6000602082019050610f156000830184610ef1565b92915050565b610f2481610d8d565b8114610f2f57600080fd5b50565b600081359050610f4181610f1b565b92915050565b60008060408385031215610f5e57610f5d610cc4565b5b6000610f6c85828601610f32565b9250506020610f7d85828601610ce0565b9150509250929050565b6000602082019050610f9c6000830184610e8f565b92915050565b7f4e487b7100000000000000000000000000000000000000000000000000000000600052604160045260246000fd5b7f4e487b7100000000000000000000000000000000000000000000000000000000600052603260045260246000fd5b7f4e487b7100000000000000000000000000000000000000000000000000000000600052601160045260246000fd5b600061103a82610aec565b91507fffffffffffffffffffffffffffffffffffffffffffffffffffffffffffffffff820361106c5761106b611000565b5b600182019050919050565b600082825260208201905092915050565b7f6f6e6c7920617070726f7665727320616c6c6f77656400000000000000000000600082015250565b60006110be601683611077565b91506110c982611088565b602082019050919050565b600060208201905081810360008301526110ed816110b1565b9050919050565b7f7472616e736665722068617320616c7265616479206265656e2073656e740000600082015250565b600061112a601e83611077565b9150611135826110f4565b602082019050919050565b600060208201905081810360008301526111598161111d565b9050919050565b7f796f752063616e6e6f7420617070726f7665207472616e73666572207477696360008201527f6500000000000000000000000000000000000000000000000000000000000000602082015250565b60006111bc602183611077565b91506111c782611160565b604082019050919050565b600060208201905081810360008301526111eb816111af565b905091905056fea264697066735822122019d7b6999324c2849bee4c52aad0731097ad230983d1f02e2cfc71646800125464736f6c63430008110033",
  "immutableReferences": {},
  "source": "// SPDX-License-Identifier: GPL-3.0\npragma solidity >=0.7.0 <0.9.0;\n\n// import \"hardhat/console.sol\";\n\ncontract MultiSigWallet {\n\t// `approvers` is a list of people who are allowed to create and approve transfers\n\taddress[] public approvers; // we set approvers list on constructor call of the contract\n\tuint256 public quorum; // we set the quorum value on constructor call of the contract\n\tstruct Transfer {\n\t\tuint256 id;\n\t\tuint256 amount;\n\t\taddress payable to;\n\t\tuint256 approvals; // no. of approvals received\n\t\tbool sent; // to check if transfer has sent already or not\n\t}\n\tmapping(uint256 => Transfer) public transfers;\n\tuint256 public nextId;\n\tmapping(address => mapping(uint256 => bool)) public approvals; // mapping to know who has approved what?\n\n\tconstructor(address[] memory _approvers, uint256 _quorum) {\n\t\tapprovers = _approvers;\n\t\tquorum = _quorum;\n\t}\n\n\t// solidity only returns specific elements on the array from the public function created by it so in order to fetch all items of address[] we need to:\n\tfunction getApprovers() external view returns (address[] memory) {\n\t\treturn approvers;\n\t}\n\n\t// we need to have `getApprovers()` external fn bcoz solidity only returns individual items of the array and not the whole array.\n\tfunction getTransfers() external view returns (Transfer[] memory) {\n\t\t// return transfers; // this throws error somewhat related to ref\n\t\t// Below code from:\n\t\tTransfer[] memory transfersMem = new Transfer[](nextId);\n\t\tfor (uint256 i = 0; i < nextId; i++) {\n\t\t\tTransfer storage transferMem = transfers[i];\n\t\t\ttransfersMem[i] = transferMem;\n\t\t}\n\t\treturn transfersMem;\n\t}\n\n\tfunction createTransfer(uint256 amount, address payable to) external onlyApprover {\n\t\ttransfers[nextId] = Transfer(nextId, amount, to, 0, false);\n\t\tnextId++;\n\t}\n\n\tfunction approveTransfer(uint256 id) external onlyApprover {\n\t\trequire(transfers[id].sent == false, 'transfer has already been sent');\n\t\trequire(approvals[msg.sender][id] == false, 'you cannot approve transfer twice');\n\n\t\tapprovals[msg.sender][id] = true;\n\t\ttransfers[id].approvals++;\n\n\t\t// console.log('(transfers[id].approvals:?', transfers[id].approvals);\n\t\t// console.log('quorum:?', quorum);\n\n\t\tif (transfers[id].approvals >= quorum) {\n\t\t\t// console.log('CONTROL GOES HERE:?');\n\t\t\ttransfers[id].sent = true;\n\t\t\taddress payable to = transfers[id].to; // making the address payable so we can transfer funds to it\n\t\t\tto.transfer(transfers[id].amount); // Learn: .transfer is a method that's attahed to every payable address\n\t\t}\n\t}\n\n\t// we can transfer via a function like below but there is more native way of doing this using a builtin receive function\n\t// function sendEther() external payable{}\n\n\t// We just need to send a transaction to the address of the contract with some ether in it but without targeting any function and below fn will be triggered automatically. Learn: We don't need fn body such receive fn\n\treceive() external payable {}\n\n\tmodifier onlyApprover() {\n\t\tbool allowed = false;\n\t\tfor (uint256 i = 0; i < approvers.length; i++) {\n\t\t\tif (approvers[i] == msg.sender) {\n\t\t\t\tallowed = true;\n\t\t\t\tbreak; // ~I added break to stop checking for rest of the addresses after one found (optimization)\n\t\t\t}\n\t\t}\n\t\trequire(allowed == true, 'only approvers allowed');\n\t\t_;\n\t}\n\n\t// ~Sahil - Get balance of this contract: https://ethereum.stackexchange.com/a/21449/106687\n\tfunction balance() external view returns (uint256) {\n\t\treturn address(this).balance;\n\t}\n}\n",
  "sourcePath": "/home/array/test/dapp-6fig-eattheblocks/wallet/contracts/MultiSigWallet.sol",
  "compiler": {
    "name": "solc",
    "version": "0.8.17+commit.8df45f5f.Emscripten.clang"
  },
  "schemaVersion": "3.4.10",
  "updatedAt": "2022-10-10T16:50:26.905Z",
  "devdoc": {
    "kind": "dev",
    "methods": {},
    "version": 1
  },
  "userdoc": {
    "kind": "user",
    "methods": {},
    "version": 1
  }
}