{
  "contractName": "Dex",
  "abi": [
    {
      "inputs": [],
      "stateMutability": "nonpayable",
      "type": "constructor"
    },
    {
      "anonymous": false,
      "inputs": [
        {
          "indexed": false,
          "internalType": "uint256",
          "name": "tradeId",
          "type": "uint256"
        },
        {
          "indexed": false,
          "internalType": "uint256",
          "name": "orderId",
          "type": "uint256"
        },
        {
          "indexed": true,
          "internalType": "bytes32",
          "name": "ticker",
          "type": "bytes32"
        },
        {
          "indexed": true,
          "internalType": "address",
          "name": "trader1",
          "type": "address"
        },
        {
          "indexed": true,
          "internalType": "address",
          "name": "trader2",
          "type": "address"
        },
        {
          "indexed": false,
          "internalType": "uint256",
          "name": "amount",
          "type": "uint256"
        },
        {
          "indexed": false,
          "internalType": "uint256",
          "name": "price",
          "type": "uint256"
        },
        {
          "indexed": false,
          "internalType": "uint256",
          "name": "date",
          "type": "uint256"
        }
      ],
      "name": "NewTrade",
      "type": "event"
    },
    {
      "inputs": [],
      "name": "admin",
      "outputs": [
        {
          "internalType": "address",
          "name": "",
          "type": "address"
        }
      ],
      "stateMutability": "view",
      "type": "function",
      "constant": true
    },
    {
      "inputs": [],
      "name": "nextOrderId",
      "outputs": [
        {
          "internalType": "uint256",
          "name": "",
          "type": "uint256"
        }
      ],
      "stateMutability": "view",
      "type": "function",
      "constant": true
    },
    {
      "inputs": [],
      "name": "nextTradeId",
      "outputs": [
        {
          "internalType": "uint256",
          "name": "",
          "type": "uint256"
        }
      ],
      "stateMutability": "view",
      "type": "function",
      "constant": true
    },
    {
      "inputs": [
        {
          "internalType": "uint256",
          "name": "",
          "type": "uint256"
        }
      ],
      "name": "tokenList",
      "outputs": [
        {
          "internalType": "bytes32",
          "name": "",
          "type": "bytes32"
        }
      ],
      "stateMutability": "view",
      "type": "function",
      "constant": true
    },
    {
      "inputs": [
        {
          "internalType": "bytes32",
          "name": "",
          "type": "bytes32"
        }
      ],
      "name": "tokens",
      "outputs": [
        {
          "internalType": "bytes32",
          "name": "ticker",
          "type": "bytes32"
        },
        {
          "internalType": "address",
          "name": "tokenAddress",
          "type": "address"
        }
      ],
      "stateMutability": "view",
      "type": "function",
      "constant": true
    },
    {
      "inputs": [
        {
          "internalType": "address",
          "name": "",
          "type": "address"
        },
        {
          "internalType": "bytes32",
          "name": "",
          "type": "bytes32"
        }
      ],
      "name": "traderBalances",
      "outputs": [
        {
          "internalType": "uint256",
          "name": "",
          "type": "uint256"
        }
      ],
      "stateMutability": "view",
      "type": "function",
      "constant": true
    },
    {
      "inputs": [
        {
          "internalType": "bytes32",
          "name": "ticker",
          "type": "bytes32"
        },
        {
          "internalType": "enum Dex.Side",
          "name": "side",
          "type": "uint8"
        }
      ],
      "name": "getOrders",
      "outputs": [
        {
          "components": [
            {
              "internalType": "uint256",
              "name": "id",
              "type": "uint256"
            },
            {
              "internalType": "address",
              "name": "trader",
              "type": "address"
            },
            {
              "internalType": "enum Dex.Side",
              "name": "side",
              "type": "uint8"
            },
            {
              "internalType": "bytes32",
              "name": "ticker",
              "type": "bytes32"
            },
            {
              "internalType": "uint256",
              "name": "amount",
              "type": "uint256"
            },
            {
              "internalType": "uint256",
              "name": "filled",
              "type": "uint256"
            },
            {
              "internalType": "uint256",
              "name": "price",
              "type": "uint256"
            },
            {
              "internalType": "uint256",
              "name": "date",
              "type": "uint256"
            }
          ],
          "internalType": "struct Dex.Order[]",
          "name": "",
          "type": "tuple[]"
        }
      ],
      "stateMutability": "view",
      "type": "function",
      "constant": true
    },
    {
      "inputs": [
        {
          "internalType": "bytes32",
          "name": "ticker",
          "type": "bytes32"
        },
        {
          "internalType": "address",
          "name": "tokenAddress",
          "type": "address"
        }
      ],
      "name": "addToken",
      "outputs": [],
      "stateMutability": "nonpayable",
      "type": "function"
    },
    {
      "inputs": [
        {
          "internalType": "uint256",
          "name": "amount",
          "type": "uint256"
        },
        {
          "internalType": "bytes32",
          "name": "ticker",
          "type": "bytes32"
        }
      ],
      "name": "deposit",
      "outputs": [],
      "stateMutability": "nonpayable",
      "type": "function"
    },
    {
      "inputs": [
        {
          "internalType": "uint256",
          "name": "amount",
          "type": "uint256"
        },
        {
          "internalType": "bytes32",
          "name": "ticker",
          "type": "bytes32"
        }
      ],
      "name": "withdraw",
      "outputs": [],
      "stateMutability": "nonpayable",
      "type": "function"
    },
    {
      "inputs": [
        {
          "internalType": "bytes32",
          "name": "ticker",
          "type": "bytes32"
        },
        {
          "internalType": "uint256",
          "name": "amount",
          "type": "uint256"
        },
        {
          "internalType": "uint256",
          "name": "price",
          "type": "uint256"
        },
        {
          "internalType": "enum Dex.Side",
          "name": "side",
          "type": "uint8"
        }
      ],
      "name": "createLimitOrder",
      "outputs": [],
      "stateMutability": "nonpayable",
      "type": "function"
    },
    {
      "inputs": [
        {
          "internalType": "bytes32",
          "name": "ticker",
          "type": "bytes32"
        },
        {
          "internalType": "uint256",
          "name": "amount",
          "type": "uint256"
        },
        {
          "internalType": "enum Dex.Side",
          "name": "side",
          "type": "uint8"
        }
      ],
      "name": "createMarketOrder",
      "outputs": [],
      "stateMutability": "nonpayable",
      "type": "function"
    }
  ],
  "bytecode": "0x608060405234801561001057600080fd5b5033600460006101000a81548173ffffffffffffffffffffffffffffffffffffffff021916908373ffffffffffffffffffffffffffffffffffffffff1602179055506130f5806100616000396000f3fe608060405234801561001057600080fd5b50600436106100b45760003560e01c80639776aacf116100715780639776aacf146101a25780639ead7222146101be578063a8d2021a146101ee578063c9630cb01461020a578063d9c0c95014610226578063f851a44014610242576100b4565b80632a58b330146100b957806346e9658b146100d757806372ce957e146101075780637f2c624614610137578063813ad08314610153578063904194a314610171575b600080fd5b6100c1610260565b6040516100ce9190612575565b60405180910390f35b6100f160048036038101906100ec91906125f0565b610266565b6040516100fe9190612858565b60405180910390f35b610121600480360381019061011c91906128a6565b6103c9565b60405161012e9190612575565b60405180910390f35b610151600480360381019061014c9190612912565b6103ee565b005b61015b6115c9565b6040516101689190612575565b60405180910390f35b61018b60048036038101906101869190612965565b6115cf565b6040516101999291906129b0565b60405180910390f35b6101bc60048036038101906101b791906129d9565b611613565b005b6101d860048036038101906101d39190612a19565b611762565b6040516101e59190612a46565b60405180910390f35b61020860048036038101906102039190612a61565b611786565b005b610224600480360381019061021f9190612a61565b611a30565b005b610240600480360381019061023b9190612aa1565b611c49565b005b61024a6124f4565b6040516102579190612b08565b60405180910390f35b60055481565b6060600080848152602001908152602001600020600083600181111561028f5761028e6126ac565b5b8152602001908152602001600020805480602002602001604051908101604052809291908181526020016000905b828210156103bd578382906000526020600020906007020160405180610100016040529081600082015481526020016001820160009054906101000a900473ffffffffffffffffffffffffffffffffffffffff1673ffffffffffffffffffffffffffffffffffffffff1673ffffffffffffffffffffffffffffffffffffffff1681526020016001820160149054906101000a900460ff166001811115610366576103656126ac565b5b6001811115610378576103776126ac565b5b815260200160028201548152602001600382015481526020016004820154815260200160058201548152602001600682015481525050815260200190600101906102bd565b50505050905092915050565b6003602052816000526040600020602052806000526040600020600091509150505481565b82600073ffffffffffffffffffffffffffffffffffffffff166001600083815260200190815260200160002060010160009054906101000a900473ffffffffffffffffffffffffffffffffffffffff1673ffffffffffffffffffffffffffffffffffffffff1603610494576040517f08c379a000000000000000000000000000000000000000000000000000000000815260040161048b90612b80565b60405180910390fd5b837f444149000000000000000000000000000000000000000000000000000000000081036104f7576040517f08c379a00000000000000000000000000000000000000000000000000000000081526004016104ee90612bec565b60405180910390fd5b60018081111561050a576105096126ac565b5b83600181111561051d5761051c6126ac565b5b036105b65783600360003373ffffffffffffffffffffffffffffffffffffffff1673ffffffffffffffffffffffffffffffffffffffff16815260200190815260200160002060008781526020019081526020016000205410156105b5576040517f08c379a00000000000000000000000000000000000000000000000000000000081526004016105ac90612c58565b60405180910390fd5b5b600080600087815260200190815260200160002060008060018111156105df576105de6126ac565b5b8660018111156105f2576105f16126ac565b5b146105fe576000610601565b60015b6001811115610613576106126126ac565b5b815260200190815260200160002090506000808690505b82805490508210801561063d5750600081115b1561134857600061069f84848154811061065a57610659612c78565b5b90600052602060002090600702016004015485858154811061067f5761067e612c78565b5b90600052602060002090600702016003015461251a90919063ffffffff16565b905060008183116106b057826106b2565b815b90506106c7818461251a90919063ffffffff16565b9250610700818686815481106106e0576106df612c78565b5b90600052602060002090600702016004015461253090919063ffffffff16565b85858154811061071357610712612c78565b5b9060005260206000209060070201600401819055503373ffffffffffffffffffffffffffffffffffffffff1685858154811061075257610751612c78565b5b906000526020600020906007020160010160009054906101000a900473ffffffffffffffffffffffffffffffffffffffff1673ffffffffffffffffffffffffffffffffffffffff168b7fdb0c486e680ba8026643e6a85f8d157b5e7bcd4b32b54d564542570a9eb204166006548989815481106107d2576107d1612c78565b5b906000526020600020906007020160000154868b8b815481106107f8576107f7612c78565b5b9060005260206000209060070201600501544260405161081c959493929190612ca7565b60405180910390a4600180811115610837576108366126ac565b5b88600181111561084a576108496126ac565b5b03610d28576108b281600360003373ffffffffffffffffffffffffffffffffffffffff1673ffffffffffffffffffffffffffffffffffffffff16815260200190815260200160002060008d81526020019081526020016000205461251a90919063ffffffff16565b600360003373ffffffffffffffffffffffffffffffffffffffff1673ffffffffffffffffffffffffffffffffffffffff16815260200190815260200160002060008c8152602001908152602001600020819055506109bf61094086868154811061091f5761091e612c78565b5b9060005260206000209060070201600501548361254690919063ffffffff16565b600360003373ffffffffffffffffffffffffffffffffffffffff1673ffffffffffffffffffffffffffffffffffffffff16815260200190815260200160002060007f444149000000000000000000000000000000000000000000000000000000000081526020019081526020016000205461253090919063ffffffff16565b600360003373ffffffffffffffffffffffffffffffffffffffff1673ffffffffffffffffffffffffffffffffffffffff16815260200190815260200160002060007f4441490000000000000000000000000000000000000000000000000000000000815260200190815260200160002081905550610ada8160036000888881548110610a4e57610a4d612c78565b5b906000526020600020906007020160010160009054906101000a900473ffffffffffffffffffffffffffffffffffffffff1673ffffffffffffffffffffffffffffffffffffffff1673ffffffffffffffffffffffffffffffffffffffff16815260200190815260200160002060008d81526020019081526020016000205461253090919063ffffffff16565b60036000878781548110610af157610af0612c78565b5b906000526020600020906007020160010160009054906101000a900473ffffffffffffffffffffffffffffffffffffffff1673ffffffffffffffffffffffffffffffffffffffff1673ffffffffffffffffffffffffffffffffffffffff16815260200190815260200160002060008c815260200190815260200160002081905550610c6f610bac868681548110610b8b57610b8a612c78565b5b9060005260206000209060070201600501548361254690919063ffffffff16565b60036000888881548110610bc357610bc2612c78565b5b906000526020600020906007020160010160009054906101000a900473ffffffffffffffffffffffffffffffffffffffff1673ffffffffffffffffffffffffffffffffffffffff1673ffffffffffffffffffffffffffffffffffffffff16815260200190815260200160002060007f444149000000000000000000000000000000000000000000000000000000000081526020019081526020016000205461251a90919063ffffffff16565b60036000878781548110610c8657610c85612c78565b5b906000526020600020906007020160010160009054906101000a900473ffffffffffffffffffffffffffffffffffffffff1673ffffffffffffffffffffffffffffffffffffffff1673ffffffffffffffffffffffffffffffffffffffff16815260200190815260200160002060007f44414900000000000000000000000000000000000000000000000000000000008152602001908152602001600020819055505b60006001811115610d3c57610d3b6126ac565b5b886001811115610d4f57610d4e6126ac565b5b0361130f57610d8b858581548110610d6a57610d69612c78565b5b9060005260206000209060070201600501548261254690919063ffffffff16565b600360003373ffffffffffffffffffffffffffffffffffffffff1673ffffffffffffffffffffffffffffffffffffffff16815260200190815260200160002060007f44414900000000000000000000000000000000000000000000000000000000008152602001908152602001600020541015610e3d576040517f08c379a0000000000000000000000000000000000000000000000000000000008152600401610e3490612d46565b60405180910390fd5b80600360003373ffffffffffffffffffffffffffffffffffffffff1673ffffffffffffffffffffffffffffffffffffffff16815260200190815260200160002060008c815260200190815260200160002054610e999190612d95565b600360003373ffffffffffffffffffffffffffffffffffffffff1673ffffffffffffffffffffffffffffffffffffffff16815260200190815260200160002060008c815260200190815260200160002081905550610fa6610f27868681548110610f0657610f05612c78565b5b9060005260206000209060070201600501548361254690919063ffffffff16565b600360003373ffffffffffffffffffffffffffffffffffffffff1673ffffffffffffffffffffffffffffffffffffffff16815260200190815260200160002060007f444149000000000000000000000000000000000000000000000000000000000081526020019081526020016000205461251a90919063ffffffff16565b600360003373ffffffffffffffffffffffffffffffffffffffff1673ffffffffffffffffffffffffffffffffffffffff16815260200190815260200160002060007f44414900000000000000000000000000000000000000000000000000000000008152602001908152602001600020819055506110c1816003600088888154811061103557611034612c78565b5b906000526020600020906007020160010160009054906101000a900473ffffffffffffffffffffffffffffffffffffffff1673ffffffffffffffffffffffffffffffffffffffff1673ffffffffffffffffffffffffffffffffffffffff16815260200190815260200160002060008d81526020019081526020016000205461251a90919063ffffffff16565b600360008787815481106110d8576110d7612c78565b5b906000526020600020906007020160010160009054906101000a900473ffffffffffffffffffffffffffffffffffffffff1673ffffffffffffffffffffffffffffffffffffffff1673ffffffffffffffffffffffffffffffffffffffff16815260200190815260200160002060008c81526020019081526020016000208190555061125661119386868154811061117257611171612c78565b5b9060005260206000209060070201600501548361254690919063ffffffff16565b600360008888815481106111aa576111a9612c78565b5b906000526020600020906007020160010160009054906101000a900473ffffffffffffffffffffffffffffffffffffffff1673ffffffffffffffffffffffffffffffffffffffff1673ffffffffffffffffffffffffffffffffffffffff16815260200190815260200160002060007f444149000000000000000000000000000000000000000000000000000000000081526020019081526020016000205461253090919063ffffffff16565b6003600087878154811061126d5761126c612c78565b5b906000526020600020906007020160010160009054906101000a900473ffffffffffffffffffffffffffffffffffffffff1673ffffffffffffffffffffffffffffffffffffffff1673ffffffffffffffffffffffffffffffffffffffff16815260200190815260200160002060007f44414900000000000000000000000000000000000000000000000000000000008152602001908152602001600020819055505b611325600160055461253090919063ffffffff16565b60058190555061133f60018561253090919063ffffffff16565b9350505061062a565b600091505b8280549050821080156113a7575082828154811061136e5761136d612c78565b5b90600052602060002090600702016003015483838154811061139357611392612c78565b5b906000526020600020906007020160040154145b156115bf5760008290505b600184805490506113c39190612dc9565b81101561150e57836001826113d89190612d95565b815481106113e9576113e8612c78565b5b906000526020600020906007020184828154811061140a57611409612c78565b5b9060005260206000209060070201600082015481600001556001820160009054906101000a900473ffffffffffffffffffffffffffffffffffffffff168160010160006101000a81548173ffffffffffffffffffffffffffffffffffffffff021916908373ffffffffffffffffffffffffffffffffffffffff1602179055506001820160149054906101000a900460ff168160010160146101000a81548160ff021916908360018111156114c1576114c06126ac565b5b02179055506002820154816002015560038201548160030155600482015481600401556005820154816005015560068201548160060155905050808061150690612dfd565b9150506113b2565b50828054806115205761151f612e45565b5b60019003818190600052602060002090600702016000808201600090556001820160006101000a81549073ffffffffffffffffffffffffffffffffffffffff02191690556001820160146101000a81549060ff021916905560028201600090556003820160009055600482016000905560058201600090556006820160009055505090556115b860018361253090919063ffffffff16565b915061134d565b5050505050505050565b60065481565b60016020528060005260406000206000915090508060000154908060010160009054906101000a900473ffffffffffffffffffffffffffffffffffffffff16905082565b600460009054906101000a900473ffffffffffffffffffffffffffffffffffffffff1673ffffffffffffffffffffffffffffffffffffffff163373ffffffffffffffffffffffffffffffffffffffff16146116a3576040517f08c379a000000000000000000000000000000000000000000000000000000000815260040161169a90612ec0565b60405180910390fd5b60405180604001604052808381526020018273ffffffffffffffffffffffffffffffffffffffff16815250600160008481526020019081526020016000206000820151816000015560208201518160010160006101000a81548173ffffffffffffffffffffffffffffffffffffffff021916908373ffffffffffffffffffffffffffffffffffffffff16021790555090505060028290806001815401808255809150506001900390600052602060002001600090919091909150555050565b6002818154811061177257600080fd5b906000526020600020016000915090505481565b80600073ffffffffffffffffffffffffffffffffffffffff166001600083815260200190815260200160002060010160009054906101000a900473ffffffffffffffffffffffffffffffffffffffff1673ffffffffffffffffffffffffffffffffffffffff160361182c576040517f08c379a000000000000000000000000000000000000000000000000000000000815260040161182390612b80565b60405180910390fd5b82600360003373ffffffffffffffffffffffffffffffffffffffff1673ffffffffffffffffffffffffffffffffffffffff16815260200190815260200160002060008481526020019081526020016000205410156118bf576040517f08c379a00000000000000000000000000000000000000000000000000000000081526004016118b690612f2c565b60405180910390fd5b61192283600360003373ffffffffffffffffffffffffffffffffffffffff1673ffffffffffffffffffffffffffffffffffffffff16815260200190815260200160002060008581526020019081526020016000205461251a90919063ffffffff16565b600360003373ffffffffffffffffffffffffffffffffffffffff1673ffffffffffffffffffffffffffffffffffffffff1681526020019081526020016000206000848152602001908152602001600020819055506001600083815260200190815260200160002060010160009054906101000a900473ffffffffffffffffffffffffffffffffffffffff1673ffffffffffffffffffffffffffffffffffffffff1663a9059cbb33856040518363ffffffff1660e01b81526004016119e7929190612f4c565b6020604051808303816000875af1158015611a06573d6000803e3d6000fd5b505050506040513d601f19601f82011682018060405250810190611a2a9190612fad565b50505050565b80600073ffffffffffffffffffffffffffffffffffffffff166001600083815260200190815260200160002060010160009054906101000a900473ffffffffffffffffffffffffffffffffffffffff1673ffffffffffffffffffffffffffffffffffffffff1603611ad6576040517f08c379a0000000000000000000000000000000000000000000000000000000008152600401611acd90612b80565b60405180910390fd5b6001600083815260200190815260200160002060010160009054906101000a900473ffffffffffffffffffffffffffffffffffffffff1673ffffffffffffffffffffffffffffffffffffffff166323b872dd3330866040518463ffffffff1660e01b8152600401611b4993929190612fda565b6020604051808303816000875af1158015611b68573d6000803e3d6000fd5b505050506040513d601f19601f82011682018060405250810190611b8c9190612fad565b50611bf083600360003373ffffffffffffffffffffffffffffffffffffffff1673ffffffffffffffffffffffffffffffffffffffff16815260200190815260200160002060008581526020019081526020016000205461253090919063ffffffff16565b600360003373ffffffffffffffffffffffffffffffffffffffff1673ffffffffffffffffffffffffffffffffffffffff168152602001908152602001600020600084815260200190815260200160002081905550505050565b83600073ffffffffffffffffffffffffffffffffffffffff166001600083815260200190815260200160002060010160009054906101000a900473ffffffffffffffffffffffffffffffffffffffff1673ffffffffffffffffffffffffffffffffffffffff1603611cef576040517f08c379a0000000000000000000000000000000000000000000000000000000008152600401611ce690612b80565b60405180910390fd5b847f44414900000000000000000000000000000000000000000000000000000000008103611d52576040517f08c379a0000000000000000000000000000000000000000000000000000000008152600401611d4990612bec565b60405180910390fd5b600180811115611d6557611d646126ac565b5b836001811115611d7857611d776126ac565b5b03611e155784600360003373ffffffffffffffffffffffffffffffffffffffff1673ffffffffffffffffffffffffffffffffffffffff1681526020019081526020016000206000888152602001908152602001600020541015611e10576040517f08c379a0000000000000000000000000000000000000000000000000000000008152600401611e079061305d565b60405180910390fd5b611edb565b611e28848661254690919063ffffffff16565b600360003373ffffffffffffffffffffffffffffffffffffffff1673ffffffffffffffffffffffffffffffffffffffff16815260200190815260200160002060007f44414900000000000000000000000000000000000000000000000000000000008152602001908152602001600020541015611eda576040517f08c379a0000000000000000000000000000000000000000000000000000000008152600401611ed190612d46565b60405180910390fd5b5b60008060008881526020019081526020016000206000856001811115611f0457611f036126ac565b5b815260200190815260200160002090508060405180610100016040528060055481526020013373ffffffffffffffffffffffffffffffffffffffff168152602001866001811115611f5857611f576126ac565b5b8152602001898152602001888152602001600081526020018781526020014281525090806001815401808255809150506001900390600052602060002090600702016000909190919091506000820151816000015560208201518160010160006101000a81548173ffffffffffffffffffffffffffffffffffffffff021916908373ffffffffffffffffffffffffffffffffffffffff16021790555060408201518160010160146101000a81548160ff0219169083600181111561201f5761201e6126ac565b5b0217905550606082015181600201556080820151816003015560a0820151816004015560c0820151816005015560e08201518160060155505060008082805490501161206c57600061207e565b6001828054905061207d9190612dc9565b5b90505b60008111156124ce576000600181111561209e5761209d6126ac565b5b8560018111156120b1576120b06126ac565b5b14801561211157508181815481106120cc576120cb612c78565b5b906000526020600020906007020160050154826001836120ec9190612dc9565b815481106120fd576120fc612c78565b5b906000526020600020906007020160050154115b6124ce57600180811115612128576121276126ac565b5b85600181111561213b5761213a6126ac565b5b14801561219b575081818154811061215657612155612c78565b5b906000526020600020906007020160050154826001836121769190612dc9565b8154811061218757612186612c78565b5b906000526020600020906007020160050154105b6124ce576000826001836121af9190612dc9565b815481106121c0576121bf612c78565b5b906000526020600020906007020160405180610100016040529081600082015481526020016001820160009054906101000a900473ffffffffffffffffffffffffffffffffffffffff1673ffffffffffffffffffffffffffffffffffffffff1673ffffffffffffffffffffffffffffffffffffffff1681526020016001820160149054906101000a900460ff16600181111561225f5761225e6126ac565b5b6001811115612271576122706126ac565b5b81526020016002820154815260200160038201548152602001600482015481526020016005820154815260200160068201548152505090508282815481106122bc576122bb612c78565b5b9060005260206000209060070201836001846122d89190612dc9565b815481106122e9576122e8612c78565b5b9060005260206000209060070201600082015481600001556001820160009054906101000a900473ffffffffffffffffffffffffffffffffffffffff168160010160006101000a81548173ffffffffffffffffffffffffffffffffffffffff021916908373ffffffffffffffffffffffffffffffffffffffff1602179055506001820160149054906101000a900460ff168160010160146101000a81548160ff021916908360018111156123a05761239f6126ac565b5b02179055506002820154816002015560038201548160030155600482015481600401556005820154816005015560068201548160060155905050808383815481106123ee576123ed612c78565b5b90600052602060002090600702016000820151816000015560208201518160010160006101000a81548173ffffffffffffffffffffffffffffffffffffffff021916908373ffffffffffffffffffffffffffffffffffffffff16021790555060408201518160010160146101000a81548160ff02191690836001811115612478576124776126ac565b5b0217905550606082015181600201556080820151816003015560a0820151816004015560c0820151816005015560e082015181600601559050506124c660018361251a90919063ffffffff16565b915050612081565b6124e4600160055461253090919063ffffffff16565b6005819055505050505050505050565b600460009054906101000a900473ffffffffffffffffffffffffffffffffffffffff1681565b600081836125289190612dc9565b905092915050565b6000818361253e9190612d95565b905092915050565b60008183612554919061307d565b905092915050565b6000819050919050565b61256f8161255c565b82525050565b600060208201905061258a6000830184612566565b92915050565b600080fd5b6000819050919050565b6125a881612595565b81146125b357600080fd5b50565b6000813590506125c58161259f565b92915050565b600281106125d857600080fd5b50565b6000813590506125ea816125cb565b92915050565b6000806040838503121561260757612606612590565b5b6000612615858286016125b6565b9250506020612626858286016125db565b9150509250929050565b600081519050919050565b600082825260208201905092915050565b6000819050602082019050919050565b6126658161255c565b82525050565b600073ffffffffffffffffffffffffffffffffffffffff82169050919050565b60006126968261266b565b9050919050565b6126a68161268b565b82525050565b7f4e487b7100000000000000000000000000000000000000000000000000000000600052602160045260246000fd5b600281106126ec576126eb6126ac565b5b50565b60008190506126fd826126db565b919050565b600061270d826126ef565b9050919050565b61271d81612702565b82525050565b61272c81612595565b82525050565b61010082016000820151612749600085018261265c565b50602082015161275c602085018261269d565b50604082015161276f6040850182612714565b5060608201516127826060850182612723565b506080820151612795608085018261265c565b5060a08201516127a860a085018261265c565b5060c08201516127bb60c085018261265c565b5060e08201516127ce60e085018261265c565b50505050565b60006127e08383612732565b6101008301905092915050565b6000602082019050919050565b600061280582612630565b61280f818561263b565b935061281a8361264c565b8060005b8381101561284b57815161283288826127d4565b975061283d836127ed565b92505060018101905061281e565b5085935050505092915050565b6000602082019050818103600083015261287281846127fa565b905092915050565b6128838161268b565b811461288e57600080fd5b50565b6000813590506128a08161287a565b92915050565b600080604083850312156128bd576128bc612590565b5b60006128cb85828601612891565b92505060206128dc858286016125b6565b9150509250929050565b6128ef8161255c565b81146128fa57600080fd5b50565b60008135905061290c816128e6565b92915050565b60008060006060848603121561292b5761292a612590565b5b6000612939868287016125b6565b935050602061294a868287016128fd565b925050604061295b868287016125db565b9150509250925092565b60006020828403121561297b5761297a612590565b5b6000612989848285016125b6565b91505092915050565b61299b81612595565b82525050565b6129aa8161268b565b82525050565b60006040820190506129c56000830185612992565b6129d260208301846129a1565b9392505050565b600080604083850312156129f0576129ef612590565b5b60006129fe858286016125b6565b9250506020612a0f85828601612891565b9150509250929050565b600060208284031215612a2f57612a2e612590565b5b6000612a3d848285016128fd565b91505092915050565b6000602082019050612a5b6000830184612992565b92915050565b60008060408385031215612a7857612a77612590565b5b6000612a86858286016128fd565b9250506020612a97858286016125b6565b9150509250929050565b60008060008060808587031215612abb57612aba612590565b5b6000612ac9878288016125b6565b9450506020612ada878288016128fd565b9350506040612aeb878288016128fd565b9250506060612afc878288016125db565b91505092959194509250565b6000602082019050612b1d60008301846129a1565b92915050565b600082825260208201905092915050565b7f7468697320746f6b656e20646f6573206e6f7420657869737400000000000000600082015250565b6000612b6a601983612b23565b9150612b7582612b34565b602082019050919050565b60006020820190508181036000830152612b9981612b5d565b9050919050565b7f63616e6e6f742074726164652044414900000000000000000000000000000000600082015250565b6000612bd6601083612b23565b9150612be182612ba0565b602082019050919050565b60006020820190508181036000830152612c0581612bc9565b9050919050565b7f746f6b656e2062616c616e636520746f6f206c6f770000000000000000000000600082015250565b6000612c42601583612b23565b9150612c4d82612c0c565b602082019050919050565b60006020820190508181036000830152612c7181612c35565b9050919050565b7f4e487b7100000000000000000000000000000000000000000000000000000000600052603260045260246000fd5b600060a082019050612cbc6000830188612566565b612cc96020830187612566565b612cd66040830186612566565b612ce36060830185612566565b612cf06080830184612566565b9695505050505050565b7f6461692062616c616e636520746f6f206c6f7700000000000000000000000000600082015250565b6000612d30601383612b23565b9150612d3b82612cfa565b602082019050919050565b60006020820190508181036000830152612d5f81612d23565b9050919050565b7f4e487b7100000000000000000000000000000000000000000000000000000000600052601160045260246000fd5b6000612da08261255c565b9150612dab8361255c565b9250828201905080821115612dc357612dc2612d66565b5b92915050565b6000612dd48261255c565b9150612ddf8361255c565b9250828203905081811115612df757612df6612d66565b5b92915050565b6000612e088261255c565b91507fffffffffffffffffffffffffffffffffffffffffffffffffffffffffffffffff8203612e3a57612e39612d66565b5b600182019050919050565b7f4e487b7100000000000000000000000000000000000000000000000000000000600052603160045260246000fd5b7f6f6e6c792061646d696e00000000000000000000000000000000000000000000600082015250565b6000612eaa600a83612b23565b9150612eb582612e74565b602082019050919050565b60006020820190508181036000830152612ed981612e9d565b9050919050565b7f62616c616e636520746f6f206c6f770000000000000000000000000000000000600082015250565b6000612f16600f83612b23565b9150612f2182612ee0565b602082019050919050565b60006020820190508181036000830152612f4581612f09565b9050919050565b6000604082019050612f6160008301856129a1565b612f6e6020830184612566565b9392505050565b60008115159050919050565b612f8a81612f75565b8114612f9557600080fd5b50565b600081519050612fa781612f81565b92915050565b600060208284031215612fc357612fc2612590565b5b6000612fd184828501612f98565b91505092915050565b6000606082019050612fef60008301866129a1565b612ffc60208301856129a1565b6130096040830184612566565b949350505050565b7f746f6b656e2062616c616e636520697320746f6f206c6f770000000000000000600082015250565b6000613047601883612b23565b915061305282613011565b602082019050919050565b600060208201905081810360008301526130768161303a565b9050919050565b60006130888261255c565b91506130938361255c565b92508282026130a18161255c565b915082820484148315176130b8576130b7612d66565b5b509291505056fea2646970667358221220ea38748335f27de9df8f198ab41317e8bb6ab501c35f2a3f97989befdb3dfa7864736f6c63430008110033",
  "immutableReferences": {},
  "source": "// SPDX-License-Identifier: GPL-3.0\npragma solidity >=0.7.0 <0.9.0;\n\n// import \"hardhat/console.sol\";\n\nimport '@openzeppelin/contracts/token/ERC20/IERC20.sol';\nimport '@openzeppelin/contracts/utils/math/SafeMath.sol';\n\n// Our Token Registry\ncontract Dex {\n\tstruct Token {\n\t\tbytes32 ticker;\n\t\taddress tokenAddress;\n\t}\n\n\t// in solidity we can use `using` keyword allows us to use a library and attach it to a particular type.\n\tusing SafeMath for uint;\n\t// LEARN: Now we have methods of `SafeMath.sol` like for eg we can do `a.add(2)` and it will evaluate to `add(a,2)` where add is a fn from `SafeMath.sol`.\n\n\tenum Side {\n\t\tBUY,\n\t\tSELL\n\t}\n\n\tstruct Order {\n\t\tuint id;\n\t\taddress trader;\n\t\tSide side;\n\t\tbytes32 ticker;\n\t\tuint amount; // AMOUNT IS THE NUMBER OF TOKENS OF THE ORDER ~Sahil\n\t\tuint filled;\n\t\tuint price;\n\t\tuint date;\n\t}\n\t// `filled` is useful say for e.g., when there is some market order of 50 but our amount is 100, so the filled will set to 50 and we'll be left with 50 more to be filled.\n\n\t// ticker -> Side (0, 1) -> Order[] ; Also the order array is sorted by best price i.e., best prices are going to be in the beginning of the array. For e.g, Buy Order sorted via best prices [80, 70, 60, 45], Sell order sorted via best prices: [30, 35, 40, 60]\n\t// Also if have two orders at same price then we'll have older order is ranked first.\n\tmapping(bytes32 => mapping(uint => Order[])) orderBook;\n\n\tmapping(bytes32 => Token) public tokens;\n\tbytes32[] public tokenList;\n\t// traderAddress => ticker => balance\n\tmapping(address => mapping(bytes32 => uint)) public traderBalances;\n\taddress public admin;\n\t// keep track the current order id\n\tuint public nextOrderId;\n\tuint public nextTradeId;\n\tbytes32 constant DAI = bytes32('DAI'); // This will also save us some gas becoz this will not be computed when you run the smart contract but when you compile it\n\n\t// LEARN: To ameka contract non-deployable you can do it by making it \"abstract\"\n\tconstructor() {\n\t\tadmin = msg.sender;\n\t}\n\n\tfunction getOrders(bytes32 ticker, Side side) external view returns (Order[] memory) {\n\t\treturn orderBook[ticker][uint(side)];\n\t}\n\n\tevent NewTrade(\n\t\tuint tradeId,\n\t\tuint orderId,\n\t\tbytes32 indexed ticker,\n\t\taddress indexed trader1,\n\t\taddress indexed trader2,\n\t\tuint amount, // AMOUNT IS THE NUMBER OF TOKENS REQUESTED FOR THE TRADE ~Sahil\n\t\tuint price,\n\t\tuint date\n\t);\n\n\tfunction addToken(bytes32 ticker, address tokenAddress) external onlyAdmin {\n\t\ttokens[ticker] = Token(ticker, tokenAddress);\n\t\ttokenList.push(ticker);\n\t}\n\n\t// fn to send tokens - consider `mohit` calls this fn(2, 'SIB') thus he means to shift from SIB account to this wallet say DEX.\n\tfunction deposit(uint amount, bytes32 ticker) external tokenExists(ticker) {\n\t\tIERC20(tokens[ticker].tokenAddress).transferFrom(msg.sender, address(this), amount);\n\t\t// safemath// traderBalances[msg.sender][ticker] += amount;\n\t\ttraderBalances[msg.sender][ticker] = traderBalances[msg.sender][ticker].add(amount);\n\t}\n\n\tfunction withdraw(uint amount, bytes32 ticker) external tokenExists(ticker) {\n\t\trequire(traderBalances[msg.sender][ticker] >= amount, 'balance too low');\n\t\t// safemath // traderBalances[msg.sender][ticker] -= amount;\n\t\ttraderBalances[msg.sender][ticker] = traderBalances[msg.sender][ticker].sub(amount);\n\t\tIERC20(tokens[ticker].tokenAddress).transfer(msg.sender, amount);\n\t}\n\n\t// fn to create a limit order\n\tfunction createLimitOrder(\n\t\tbytes32 ticker,\n\t\tuint amount,\n\t\tuint price,\n\t\tSide side\n\t) external tokenExists(ticker) tokenIsNotDai(ticker) {\n\t\t// for sell orders we need to make sure that trader have enough tokens in the balance\n\t\tif (side == Side.SELL) {\n\t\t\trequire(traderBalances[msg.sender][ticker] >= amount, 'token balance is too low');\n\t\t} else {\n\t\t\t// if this is buy order we need to make sure trader has enough DAI token\n\t\t\t// safemath // require(traderBalances[msg.sender][DAI] >=  amount*price, 'dai balance too low');\n\t\t\trequire(traderBalances[msg.sender][DAI] >= amount.mul(price), 'dai balance too low');\n\t\t}\n\n\t\t// now we can add the order to order book\n\t\t// first we get pointe to all the orders\n\t\tOrder[] storage orders = orderBook[ticker][uint(side)];\n\t\t// push the order at the end of order array\n\t\torders.push(Order(nextOrderId, msg.sender, side, ticker, amount, 0, price, block.timestamp));\n\n\t\t// using bubble sort algorithm\n\t\t// integer underflow error fix: // uint i = orders.length - 1; // LETS say we have 3 orders already then after pushing new order, its idx is 4 so it can jump for 3 times at maz say if its maximum of all orders.\n\t\tuint i = orders.length > 0 ? orders.length - 1 : 0; // LETS say we have 3 orders already then after pushing new order, its idx is 4 so it can jump for 3 times at maz say if its maximum of all orders.\n\t\twhile (i > 0) {\n\t\t\t// for buy orders high prices at beginning and for sell low prices at beginning\n\t\t\tif (side == Side.BUY && orders[i - 1].price > orders[i].price) {\n\t\t\t\t// buy order\n\t\t\t\tbreak; // becoz previousElem > currentElem is a happy path\n\t\t\t}\n\t\t\tif (side == Side.SELL && orders[i - 1].price < orders[i].price) {\n\t\t\t\t// sell order\n\t\t\t\tbreak; // becoz previousElem > currentElem is a happy path\n\t\t\t}\n\n\t\t\t// swap elements (so we only swap if none of the above conditions match)\n\t\t\tOrder memory order = orders[i - 1];\n\t\t\torders[i - 1] = orders[i];\n\t\t\torders[i] = order;\n\n\t\t\t// DECREMENT I FOR THE WHILE LOOP\n\t\t\t// safemath // i--;\n\t\t\ti = i.sub(1);\n\t\t}\n\t\t// safe math // nextOrderId++;\n\t\tnextOrderId = nextOrderId.add(1);\n\t}\n\n\t// LEARN: Exchagne: Market orders are matched with best priced limit buy/sell orders and market order will keep settling up with the limit orders in the order of best price until the market order is filled.\n\t// vid 85\n\tfunction createMarketOrder(\n\t\tbytes32 ticker,\n\t\tuint amount,\n\t\tSide side\n\t) external tokenExists(ticker) tokenIsNotDai(ticker) {\n\t\tif (side == Side.SELL) {\n\t\t\trequire(traderBalances[msg.sender][ticker] >= amount, 'token balance too low');\n\t\t}\n\n\t\tOrder[] storage orders = orderBook[ticker][uint(side == Side.BUY ? Side.SELL : Side.BUY)];\n\t\tuint i; // default value is 0\n\t\tuint remaining = amount; // AMOUNT IS THE NUMBER OF REQUESTED TOKENS BY THE CALLER\n\n\t\twhile (i < orders.length && remaining > 0) {\n\t\t\t// we need to know the available liquidity of each order of the orderbook\n\t\t\t// safemath // uint available = orders[i].amount - orders[i].filled; // AVAILABLE TOKENS FOR BUY/SELL OF EACH LIMIT ORDER ~IMO~Sahil\n\t\t\tuint available = orders[i].amount.sub(orders[i].filled); // AVAILABLE TOKENS FOR BUY/SELL OF EACH LIMIT ORDER ~IMO~Sahil\n\t\t\tuint matched = (remaining > available) ? available : remaining; // MATCH IS THE MAXIMUM POSSIBLE BUY/SELL TOKENS FROM THIS PARTICULAR LIMIT ORDER\n\t\t\t// safemath // remaining -= matched;\n\t\t\tremaining = remaining.sub(matched);\n\t\t\t// safemath // orders[i].filled += matched;\n\t\t\torders[i].filled = orders[i].filled.add(matched);\n\t\t\temit NewTrade(\n\t\t\t\tnextTradeId, // uint tradeId,\n\t\t\t\torders[i].id, // uint orderId,\n\t\t\t\tticker, // bytes32 indexed ticker,\n\t\t\t\torders[i].trader, // address indexed trader1,\n\t\t\t\tmsg.sender, // address indexed trader2,\n\t\t\t\tmatched, // uint amount, // AMOUNT IS THE NUMBER OF TOKENS REQUESTED FOR THE TRADE ~Sahil\n\t\t\t\torders[i].price, // price from limitOrder // uint price,\n\t\t\t\tblock.timestamp // uint date,\n\t\t\t);\n\t\t\tif (side == Side.SELL) {\n\t\t\t\t// DEDUCT TICKER AND ADD DAI\n\t\t\t\ttraderBalances[msg.sender][ticker] = traderBalances[msg.sender][ticker].sub(matched);\n\t\t\t\ttraderBalances[msg.sender][DAI] = traderBalances[msg.sender][DAI].add(matched.mul(orders[i].price));\n\t\t\t\t// safemath // traderBalances[msg.sender][ticker] -= matched;\n\t\t\t\t// safemath // traderBalances[msg.sender][DAI] += matched * orders[i].price;\n\n\t\t\t\t// ADD TICKER AND DEDUCT DAI\n\t\t\t\ttraderBalances[orders[i].trader][ticker] = traderBalances[orders[i].trader][ticker].add(matched);\n\t\t\t\ttraderBalances[orders[i].trader][DAI] = traderBalances[orders[i].trader][DAI].sub(matched.mul(orders[i].price));\n\t\t\t\t// safemath // traderBalances[orders[i].trader][ticker] += matched;\n\t\t\t\t// safemath // traderBalances[orders[i].trader][DAI] -= matched * orders[i].price;\n\t\t\t}\n\n\t\t\t// copy of same above code but conditioned for buy order this time\n\t\t\tif (side == Side.BUY) {\n\t\t\t\trequire(traderBalances[msg.sender][DAI] >= matched.mul(orders[i].price), 'dai balance too low');\n\t\t\t\t// DEDUCT TICKER AND ADD DAI\n\t\t\t\ttraderBalances[msg.sender][ticker] = traderBalances[msg.sender][ticker] + matched;\n\t\t\t\ttraderBalances[msg.sender][DAI] = traderBalances[msg.sender][DAI].sub(matched.mul(orders[i].price));\n\t\t\t\t// safemath // traderBalances[msg.sender][ticker] += matched;\n\t\t\t\t// safemath // traderBalances[msg.sender][DAI] -= matched * orders[i].price;\n\t\t\t\t\n\t\t\t\t// ADD TICKER AND DEDUCT DAI\n\t\t\t\ttraderBalances[orders[i].trader][ticker] = traderBalances[orders[i].trader][ticker].sub(matched);\n\t\t\t\ttraderBalances[orders[i].trader][DAI] = traderBalances[orders[i].trader][DAI].add(matched.mul(orders[i].price));\n\t\t\t\t// safemath // traderBalances[orders[i].trader][ticker] -= matched;\n\t\t\t\t// safemath // traderBalances[orders[i].trader][DAI] += matched * orders[i].price;\n\t\t\t}\n\t\t\t// we know its less readable than before (i.e., without safemath) but we got no choice becoz its more important to be more safe than readable.\n\t\t\t// safemath // nextOrderId++;\n\t\t\tnextOrderId = nextOrderId.add(1);\n\t\t\t// safemath // i++;\n\t\t\ti = i.add(1);\n\t\t}\n\n\t\t// algorithm to remove the empty trades from the orderBook, VIEW VID 85 (END PART OF IT)\n\t\ti = 0;\n\t\twhile (i < orders.length && orders[i].filled == orders[i].amount) {\n\t\t\t// inner for loop\n\t\t\tfor (uint j = i; j < orders.length - 1; j++) {\n\t\t\t\torders[j] = orders[j + 1];\n\t\t\t}\n\t\t\torders.pop();\n\t\t\t// safemath // i++;\n\t\t\ti = i.add(1);\n\t\t}\n\t}\n\n\t// we need to make sure that the token is not Dai becoz dai is used as quote currency and we should not be able to buy or sell dai itself\n\tmodifier tokenIsNotDai(bytes32 ticker) {\n\t\trequire(ticker != DAI, 'cannot trade DAI');\n\t\t_;\n\t}\n\n\tmodifier tokenExists(bytes32 ticker) {\n\t\trequire(tokens[ticker].tokenAddress != address(0), 'this token does not exist');\n\t\t_;\n\t}\n\n\tmodifier onlyAdmin() {\n\t\trequire(msg.sender == admin, 'only admin');\n\t\t_;\n\t}\n}\n\n// Creating a wallet in our smart contract\n// Before a trader are able to our decentralized exchange they need to first send ethereum token to our smart contract. So we're gonna create two fns, a fn to receive ethereum tokens and another fn to withdraw these tokens. And we also need to keep track how many tokens are send by which address, so for that we're gonna need a mapping i.e., `traderBalances` which is address => bytes32 => uint (balanceOfEachTrader).\n",
  "sourcePath": "/home/array/test/dapp-6fig-eattheblocks/decentralized-exchange/contracts/Dex.sol",
  "compiler": {
    "name": "solc",
    "version": "0.8.17+commit.8df45f5f.Emscripten.clang"
  },
  "schemaVersion": "3.4.10",
  "updatedAt": "2022-10-13T19:30:49.458Z",
  "networkType": "ethereum",
  "devdoc": {
    "kind": "dev",
    "methods": {},
    "version": 1
  },
  "userdoc": {
    "kind": "user",
    "methods": {},
    "version": 1
  }
}